{
  "contractName": "LBRC",
  "abi": [
    {
      "inputs": [],
      "stateMutability": "nonpayable",
      "type": "constructor"
    },
    {
      "inputs": [
        {
          "internalType": "address",
          "name": "",
          "type": "address"
        }
      ],
      "name": "empContractStatus",
      "outputs": [
        {
          "internalType": "int8",
          "name": "cenLat",
          "type": "int8"
        },
        {
          "internalType": "int8",
          "name": "cenLon",
          "type": "int8"
        },
        {
          "internalType": "int8",
          "name": "radius",
          "type": "int8"
        },
        {
          "internalType": "uint8",
          "name": "payAmount",
          "type": "uint8"
        },
        {
          "internalType": "uint8",
          "name": "compCount",
          "type": "uint8"
        },
        {
          "internalType": "uint8",
          "name": "reqAmount",
          "type": "uint8"
        }
      ],
      "stateMutability": "view",
      "type": "function",
      "constant": true
    },
    {
      "inputs": [
        {
          "internalType": "uint256",
          "name": "",
          "type": "uint256"
        }
      ],
      "name": "employees",
      "outputs": [
        {
          "internalType": "address",
          "name": "",
          "type": "address"
        }
      ],
      "stateMutability": "view",
      "type": "function",
      "constant": true
    },
    {
      "inputs": [],
      "name": "employer",
      "outputs": [
        {
          "internalType": "address",
          "name": "",
          "type": "address"
        }
      ],
      "stateMutability": "view",
      "type": "function",
      "constant": true
    },
    {
      "inputs": [
        {
          "internalType": "address",
          "name": "_empAddr",
          "type": "address"
        },
        {
          "internalType": "int8",
          "name": "_cenLat",
          "type": "int8"
        },
        {
          "internalType": "int8",
          "name": "_cenLon",
          "type": "int8"
        },
        {
          "internalType": "int8",
          "name": "_radius",
          "type": "int8"
        },
        {
          "internalType": "uint8",
          "name": "_payAmount",
          "type": "uint8"
        },
        {
          "internalType": "uint8",
          "name": "_reqAmount",
          "type": "uint8"
        }
      ],
      "name": "setAccount",
      "outputs": [],
      "stateMutability": "nonpayable",
      "type": "function"
    },
    {
      "inputs": [
        {
          "internalType": "int8",
          "name": "_lat",
          "type": "int8"
        },
        {
          "internalType": "int8",
          "name": "_lon",
          "type": "int8"
        }
      ],
      "name": "updateStatus",
      "outputs": [],
      "stateMutability": "nonpayable",
      "type": "function"
    },
    {
      "inputs": [
        {
          "internalType": "address payable",
          "name": "_to",
          "type": "address"
        }
      ],
      "name": "payMe",
      "outputs": [],
      "stateMutability": "payable",
      "type": "function",
      "payable": true
    },
    {
      "inputs": [],
      "name": "getAdmin",
      "outputs": [
        {
          "internalType": "address",
          "name": "",
          "type": "address"
        }
      ],
      "stateMutability": "view",
      "type": "function",
      "constant": true
    }
  ],
  "bytecode": "0x608060405234801561001057600080fd5b50336000806101000a81548173ffffffffffffffffffffffffffffffffffffffff021916908373ffffffffffffffffffffffffffffffffffffffff160217905550611648806100606000396000f3fe6080604052600436106100705760003560e01c806380def88d1161004e57806380def88d146101065780639530228b14610148578063ad218d4314610171578063ae200e791461018d57610070565b80632134432c146100755780634739326b1461009e5780636e9960c3146100db575b600080fd5b34801561008157600080fd5b5061009c60048036038101906100979190610c13565b6101b8565b005b3480156100aa57600080fd5b506100c560048036038101906100c09190610cd6565b6104dd565b6040516100d29190610d12565b60405180910390f35b3480156100e757600080fd5b506100f061051c565b6040516100fd9190610d12565b60405180910390f35b34801561011257600080fd5b5061012d60048036038101906101289190610d2d565b610545565b60405161013f96959493929190610d78565b60405180910390f35b34801561015457600080fd5b5061016f600480360381019061016a9190610dd9565b6105cf565b005b61018b60048036038101906101869190610e57565b6106f3565b005b34801561019957600080fd5b506101a26109c2565b6040516101af9190610d12565b60405180910390f35b60008054906101000a900473ffffffffffffffffffffffffffffffffffffffff1673ffffffffffffffffffffffffffffffffffffffff163373ffffffffffffffffffffffffffffffffffffffff1614610246576040517f08c379a000000000000000000000000000000000000000000000000000000000815260040161023d90610f07565b60405180910390fd5b6001869080600181540180825580915050600190039060005260206000200160009091909190916101000a81548173ffffffffffffffffffffffffffffffffffffffff021916908373ffffffffffffffffffffffffffffffffffffffff16021790555084600260008873ffffffffffffffffffffffffffffffffffffffff1673ffffffffffffffffffffffffffffffffffffffff16815260200190815260200160002060000160006101000a81548160ff021916908360000b60ff16021790555083600260008873ffffffffffffffffffffffffffffffffffffffff1673ffffffffffffffffffffffffffffffffffffffff16815260200190815260200160002060000160016101000a81548160ff021916908360000b60ff16021790555082600260008873ffffffffffffffffffffffffffffffffffffffff1673ffffffffffffffffffffffffffffffffffffffff16815260200190815260200160002060000160026101000a81548160ff021916908360000b60ff16021790555081600260008873ffffffffffffffffffffffffffffffffffffffff1673ffffffffffffffffffffffffffffffffffffffff16815260200190815260200160002060000160036101000a81548160ff021916908360ff1602179055506000600260008873ffffffffffffffffffffffffffffffffffffffff1673ffffffffffffffffffffffffffffffffffffffff16815260200190815260200160002060000160046101000a81548160ff021916908360ff16021790555080600260008873ffffffffffffffffffffffffffffffffffffffff1673ffffffffffffffffffffffffffffffffffffffff16815260200190815260200160002060000160056101000a81548160ff021916908360ff160217905550505050505050565b600181815481106104ed57600080fd5b906000526020600020016000915054906101000a900473ffffffffffffffffffffffffffffffffffffffff1681565b60008060009054906101000a900473ffffffffffffffffffffffffffffffffffffffff16905090565b60026020528060005260406000206000915090508060000160009054906101000a900460000b908060000160019054906101000a900460000b908060000160029054906101000a900460000b908060000160039054906101000a900460ff16908060000160049054906101000a900460ff16908060000160059054906101000a900460ff16905086565b60006105db83836109e6565b9050600260003373ffffffffffffffffffffffffffffffffffffffff1673ffffffffffffffffffffffffffffffffffffffff16815260200190815260200160002060000160029054906101000a900460000b60000b8112156106ee576001600260003373ffffffffffffffffffffffffffffffffffffffff1673ffffffffffffffffffffffffffffffffffffffff16815260200190815260200160002060000160049054906101000a900460ff166106939190610f56565b600260003373ffffffffffffffffffffffffffffffffffffffff1673ffffffffffffffffffffffffffffffffffffffff16815260200190815260200160002060000160046101000a81548160ff021916908360ff1602179055505b505050565b808073ffffffffffffffffffffffffffffffffffffffff163373ffffffffffffffffffffffffffffffffffffffff1614610762576040517f08c379a000000000000000000000000000000000000000000000000000000000815260040161075990610fff565b60405180910390fd5b6000805b600180549050811015610800578273ffffffffffffffffffffffffffffffffffffffff166001828154811061079e5761079d61101f565b5b9060005260206000200160009054906101000a900473ffffffffffffffffffffffffffffffffffffffff1673ffffffffffffffffffffffffffffffffffffffff16036107ed5760019150610800565b80806107f89061104e565b915050610766565b5080610841576040517f08c379a000000000000000000000000000000000000000000000000000000000815260040161083890611108565b60405180910390fd5b600260008473ffffffffffffffffffffffffffffffffffffffff1673ffffffffffffffffffffffffffffffffffffffff16815260200190815260200160002060000160059054906101000a900460ff1660ff16600260008573ffffffffffffffffffffffffffffffffffffffff1673ffffffffffffffffffffffffffffffffffffffff16815260200190815260200160002060000160049054906101000a900460ff1660ff16116108f157600080fd5b60008373ffffffffffffffffffffffffffffffffffffffff166108fc600260008773ffffffffffffffffffffffffffffffffffffffff1673ffffffffffffffffffffffffffffffffffffffff16815260200190815260200160002060000160039054906101000a900460ff1660ff169081150290604051600060405180830381858888f193505050509050806109bc576040517f08c379a00000000000000000000000000000000000000000000000000000000081526004016109b390611174565b60405180910390fd5b50505050565b60008054906101000a900473ffffffffffffffffffffffffffffffffffffffff1681565b600080600260003373ffffffffffffffffffffffffffffffffffffffff1673ffffffffffffffffffffffffffffffffffffffff16815260200190815260200160002060000160009054906101000a900460000b84610a449190611194565b60000b90506000600260003373ffffffffffffffffffffffffffffffffffffffff1673ffffffffffffffffffffffffffffffffffffffff16815260200190815260200160002060000160019054906101000a900460000b84610aa69190611194565b60000b9050610ad7600282610abb9190611362565b600284610ac89190611362565b610ad291906113ce565b610ae1565b9250505092915050565b6000806002600184610af391906113ce565b610afd9190611491565b90508291505b81811215610b38578091506002808385610b1d9190611491565b610b2791906114fb565b610b319190611491565b9050610b03565b50919050565b600080fd5b600073ffffffffffffffffffffffffffffffffffffffff82169050919050565b6000610b6e82610b43565b9050919050565b610b7e81610b63565b8114610b8957600080fd5b50565b600081359050610b9b81610b75565b92915050565b60008160000b9050919050565b610bb781610ba1565b8114610bc257600080fd5b50565b600081359050610bd481610bae565b92915050565b600060ff82169050919050565b610bf081610bda565b8114610bfb57600080fd5b50565b600081359050610c0d81610be7565b92915050565b60008060008060008060c08789031215610c3057610c2f610b3e565b5b6000610c3e89828a01610b8c565b9650506020610c4f89828a01610bc5565b9550506040610c6089828a01610bc5565b9450506060610c7189828a01610bc5565b9350506080610c8289828a01610bfe565b92505060a0610c9389828a01610bfe565b9150509295509295509295565b6000819050919050565b610cb381610ca0565b8114610cbe57600080fd5b50565b600081359050610cd081610caa565b92915050565b600060208284031215610cec57610ceb610b3e565b5b6000610cfa84828501610cc1565b91505092915050565b610d0c81610b63565b82525050565b6000602082019050610d276000830184610d03565b92915050565b600060208284031215610d4357610d42610b3e565b5b6000610d5184828501610b8c565b91505092915050565b610d6381610ba1565b82525050565b610d7281610bda565b82525050565b600060c082019050610d8d6000830189610d5a565b610d9a6020830188610d5a565b610da76040830187610d5a565b610db46060830186610d69565b610dc16080830185610d69565b610dce60a0830184610d69565b979650505050505050565b60008060408385031215610df057610def610b3e565b5b6000610dfe85828601610bc5565b9250506020610e0f85828601610bc5565b9150509250929050565b6000610e2482610b43565b9050919050565b610e3481610e19565b8114610e3f57600080fd5b50565b600081359050610e5181610e2b565b92915050565b600060208284031215610e6d57610e6c610b3e565b5b6000610e7b84828501610e42565b91505092915050565b600082825260208201905092915050565b7f4f6e6c7920656d706c6f79656572206861732061636365737320746f2074686960008201527f732066756e6374696f6e00000000000000000000000000000000000000000000602082015250565b6000610ef1602a83610e84565b9150610efc82610e95565b604082019050919050565b60006020820190508181036000830152610f2081610ee4565b9050919050565b7f4e487b7100000000000000000000000000000000000000000000000000000000600052601160045260246000fd5b6000610f6182610bda565b9150610f6c83610bda565b92508260ff03821115610f8257610f81610f27565b5b828201905092915050565b7f4f6e6c7920616e20656d706c6f796565206861732061636365737320746f207460008201527f6869732066756e6374696f6e0000000000000000000000000000000000000000602082015250565b6000610fe9602c83610e84565b9150610ff482610f8d565b604082019050919050565b6000602082019050818103600083015261101881610fdc565b9050919050565b7f4e487b7100000000000000000000000000000000000000000000000000000000600052603260045260246000fd5b600061105982610ca0565b91507fffffffffffffffffffffffffffffffffffffffffffffffffffffffffffffffff820361108b5761108a610f27565b5b600182019050919050565b7f4f6e6c7920616e2020656d706c6f796565206861732061636365737320746f2060008201527f746869732066756e6374696f6e00000000000000000000000000000000000000602082015250565b60006110f2602d83610e84565b91506110fd82611096565b604082019050919050565b60006020820190508181036000830152611121816110e5565b9050919050565b7f4661696c656420746f2073656e64204574686572000000000000000000000000600082015250565b600061115e601483610e84565b915061116982611128565b602082019050919050565b6000602082019050818103600083015261118d81611151565b9050919050565b600061119f82610ba1565b91506111aa83610ba1565b9250827fffffffffffffffffffffffffffffffffffffffffffffffffffffffffffffff80018212600084121516156111e5576111e4610f27565b5b82607f0182136000841216156111fe576111fd610f27565b5b828203905092915050565b60008160011c9050919050565b6000808291508390505b60018511156112605780860481111561123c5761123b610f27565b5b600185161561124b5780820291505b808102905061125985611209565b9450611220565b94509492505050565b60008260008114611281576001811461128b57611294565b6001915050611350565b82915050611350565b50816112a35760009050611350565b6001905060008213600181146112c057600081146112d8576112ec565b8286048311156112d3576112d2610f27565b5b6112ec565b8286058312156112eb576112ea610f27565b5b5b5060018316156112fa578190505b818202915061130883611209565b925061131685848484611216565b92509050818504811160008213161561133257611331610f27565b5b818405811260008212161561134a57611349610f27565b5b81810290505b949350505050565b6000819050919050565b600061136d82611358565b915061137883610bda565b92506113c67f7fffffffffffffffffffffffffffffffffffffffffffffffffffffffffffffff7f80000000000000000000000000000000000000000000000000000000000000008585611269565b905092915050565b60006113d982611358565b91506113e483611358565b9250817f7fffffffffffffffffffffffffffffffffffffffffffffffffffffffffffffff0383136000831215161561141f5761141e610f27565b5b817f800000000000000000000000000000000000000000000000000000000000000003831260008312161561145757611456610f27565b5b828201905092915050565b7f4e487b7100000000000000000000000000000000000000000000000000000000600052601260045260246000fd5b600061149c82611358565b91506114a783611358565b9250826114b7576114b6611462565b5b600160000383147f8000000000000000000000000000000000000000000000000000000000000000831416156114f0576114ef610f27565b5b828205905092915050565b600061150682611358565b915061151183611358565b9250827f7fffffffffffffffffffffffffffffffffffffffffffffffffffffffffffffff04821160008413600084131616156115505761154f610f27565b5b817f8000000000000000000000000000000000000000000000000000000000000000058312600084126000841316161561158d5761158c610f27565b5b827f800000000000000000000000000000000000000000000000000000000000000005821260008413600084121616156115ca576115c9610f27565b5b827f7fffffffffffffffffffffffffffffffffffffffffffffffffffffffffffffff058212600084126000841216161561160757611606610f27565b5b82820290509291505056fea2646970667358221220b80edea9e50c2bcb1289a5dffa39acda3e9adb117b8a0df23f8ea22ac7d1b1d364736f6c634300080f0033",
  "immutableReferences": {},
  "source": "// SPDX-License-Identifier: MIT\npragma solidity ^0.8.9;\n\ncontract LBRC {\n\n    address public employer;\n    address[] public employees;\n\n    struct ContractStatus {\n        int8 cenLat;\n        int8 cenLon;\n        int8 radius;\n        uint8 payAmount;\n        uint8 compCount;\n        uint8 reqAmount;\n    }\n\n    mapping(address => ContractStatus) public empContractStatus;\n    //////////////////////////////////////////////////////////////////////\n    // helper functions\n    constructor () {\n        employer = msg.sender;\n    }\n    \n    // Define a re-usable access modifier\n    // To be used when the contract updating and emplyee\n    // data submission functions are called\n    modifier onlyEmployer() {\n        require(msg.sender == employer, \"Only employeer has access to this function\");\n        _;\n    }\n    modifier onlyEmployee(address _addr) {\n        require(msg.sender == _addr, \"Only an employee has access to this function\");\n        bool exists = false;\n\n        for (uint256 i = 0; i < employees.length; i++) {\n            if (employees[i] == _addr) {\n                exists = true;\n                break;\n            }\n        }\n\n        require(exists, \"Only an  employee has access to this function\");\n        _;\n    }\n\n    function sqrt(int256 input) private pure returns (int256 output) {\n        int256 temp = (input + 1) / 2;\n        output = input;\n        while (temp < output) {\n            output = temp;\n            temp = ((input / output) * 2) / 2;\n        }\n    }\n\n    function getDistance(\n        int8 _lat,\n        int8 _lon\n    ) private view returns (int256 dist) {\n        int256 x = _lat - empContractStatus[msg.sender].cenLat;\n        int256 y = _lon - empContractStatus[msg.sender].cenLon;\n        dist = sqrt(x**2 + y**2);\n        return dist;\n    }\n\n    ///////////////////////////////////////////////////////////////\n    // only employer has access\n    function setAccount(\n        address _empAddr,\n        int8 _cenLat,\n        int8 _cenLon,\n        int8 _radius,\n        uint8 _payAmount,\n        uint8 _reqAmount\n        // Should also set the duration the contract will be checking for\n        ) public onlyEmployer() {\n            employees.push(_empAddr); // should delete if it is already in the list\n            empContractStatus[_empAddr].cenLat = _cenLat;\n            empContractStatus[_empAddr].cenLon = _cenLon;\n            empContractStatus[_empAddr].radius = _radius;\n            empContractStatus[_empAddr].payAmount = _payAmount;\n            empContractStatus[_empAddr].compCount = 0;\n            empContractStatus[_empAddr].reqAmount = _reqAmount;\n    }\n\n    function updateStatus(\n        int8 _lat, \n        int8 _lon\n        ) public {\n            int256 dist = getDistance(_lat, _lon);\n            if (dist < empContractStatus[msg.sender].radius) {\n                empContractStatus[msg.sender].compCount = empContractStatus[msg.sender].compCount + 1;\n            }\n    }\n\n    function payMe(address payable _to) public payable onlyEmployee(_to) {\n        require(empContractStatus[_to].compCount > empContractStatus[_to].reqAmount);\n        bool sent = _to.send(empContractStatus[_to].payAmount);\n        require(sent, \"Failed to send Ether\");\n    }\n    \n    // function getEmpStatus(address _empAdd) public view returns (bool) {\n    //     // For now it returns true if the update was successfull atlest once.\n    //     if (empContractStatus[_empAdd].compCount > 3) return true;\n    //     else return false;\n    // }\n\n    function getAdmin() public view returns(address) {\n        return employer;\n    }\n\n    \n}\n",
  "sourcePath": "/home/henok/dev-env/10academy/week-10/Location-Based-Refunding-Smart-Contract/smart-contract/contracts/LocationVerification.sol",
  "compiler": {
    "name": "solc",
    "version": "0.8.15+commit.e14f2714.Emscripten.clang"
  },
  "schemaVersion": "3.4.8",
  "updatedAt": "2022-07-18T07:09:33.526Z",
  "networkType": "ethereum",
  "devdoc": {
    "kind": "dev",
    "methods": {},
    "version": 1
  },
  "userdoc": {
    "kind": "user",
    "methods": {},
    "version": 1
  }
}